:100000000C942A000C9434000C9434000C943400AA
:100010000C9434000C9434000C9434000C94340090
:100020000C9434000C9434000C9434000C94340080
:100030000C9434000C9434000C9434000C94340070
:100040000C9434000C9434000C9434000C94340060
:100050000C94340011241FBECFE5D8E0DEBFCDBF25
:100060000E9436000C9451000C9400008D9A82E896
:100070008FBD8AE18EBD8FE19EE497BD86BD80E194
:1000800097E29BBD8ABD80E090E008958D9A089527
:1000900082E88FBD8AE18EBD8FE19EE497BD86BD6B
:0600A0000895F894FFCF63
:00000001FF
